{
  "contractName": "ERC721Connector",
  "abi": [
    {
      "inputs": [
        {
          "internalType": "string",
          "name": "name",
          "type": "string"
        },
        {
          "internalType": "string",
          "name": "symbol",
          "type": "string"
        }
      ],
      "stateMutability": "nonpayable",
      "type": "constructor"
    },
    {
      "anonymous": false,
      "inputs": [
        {
          "indexed": true,
          "internalType": "address",
          "name": "_owner",
          "type": "address"
        },
        {
          "indexed": true,
          "internalType": "address",
          "name": "_approved",
          "type": "address"
        },
        {
          "indexed": true,
          "internalType": "uint256",
          "name": "_tokenId",
          "type": "uint256"
        }
      ],
      "name": "Approval",
      "type": "event"
    },
    {
      "anonymous": false,
      "inputs": [
        {
          "indexed": true,
          "internalType": "address",
          "name": "_owner",
          "type": "address"
        },
        {
          "indexed": true,
          "internalType": "address",
          "name": "_operator",
          "type": "address"
        },
        {
          "indexed": false,
          "internalType": "bool",
          "name": "_approved",
          "type": "bool"
        }
      ],
      "name": "ApprovalForAll",
      "type": "event"
    },
    {
      "anonymous": false,
      "inputs": [
        {
          "indexed": true,
          "internalType": "address",
          "name": "_from",
          "type": "address"
        },
        {
          "indexed": true,
          "internalType": "address",
          "name": "_to",
          "type": "address"
        },
        {
          "indexed": true,
          "internalType": "uint256",
          "name": "_tokenId",
          "type": "uint256"
        }
      ],
      "name": "Transfer",
      "type": "event"
    },
    {
      "inputs": [
        {
          "internalType": "address",
          "name": "_to",
          "type": "address"
        },
        {
          "internalType": "uint256",
          "name": "_tokenId",
          "type": "uint256"
        }
      ],
      "name": "approve",
      "outputs": [],
      "stateMutability": "payable",
      "type": "function"
    },
    {
      "inputs": [
        {
          "internalType": "address",
          "name": "_owner",
          "type": "address"
        }
      ],
      "name": "balanceOf",
      "outputs": [
        {
          "internalType": "uint256",
          "name": "",
          "type": "uint256"
        }
      ],
      "stateMutability": "view",
      "type": "function"
    },
    {
      "inputs": [
        {
          "internalType": "uint256",
          "name": "_tokenId",
          "type": "uint256"
        }
      ],
      "name": "getApproved",
      "outputs": [
        {
          "internalType": "address",
          "name": "",
          "type": "address"
        }
      ],
      "stateMutability": "view",
      "type": "function"
    },
    {
      "inputs": [
        {
          "internalType": "address",
          "name": "_owner",
          "type": "address"
        },
        {
          "internalType": "address",
          "name": "_operator",
          "type": "address"
        }
      ],
      "name": "isApprovedForAll",
      "outputs": [
        {
          "internalType": "bool",
          "name": "",
          "type": "bool"
        }
      ],
      "stateMutability": "view",
      "type": "function"
    },
    {
      "inputs": [],
      "name": "name",
      "outputs": [
        {
          "internalType": "string",
          "name": "",
          "type": "string"
        }
      ],
      "stateMutability": "view",
      "type": "function"
    },
    {
      "inputs": [
        {
          "internalType": "uint256",
          "name": "_tokenId",
          "type": "uint256"
        }
      ],
      "name": "ownerOf",
      "outputs": [
        {
          "internalType": "address",
          "name": "",
          "type": "address"
        }
      ],
      "stateMutability": "view",
      "type": "function"
    },
    {
      "inputs": [
        {
          "internalType": "address",
          "name": "_operator",
          "type": "address"
        },
        {
          "internalType": "bool",
          "name": "_approved",
          "type": "bool"
        }
      ],
      "name": "setApprovalForAll",
      "outputs": [],
      "stateMutability": "nonpayable",
      "type": "function"
    },
    {
      "inputs": [
        {
          "internalType": "bytes4",
          "name": "interfaceId",
          "type": "bytes4"
        }
      ],
      "name": "supportsInterface",
      "outputs": [
        {
          "internalType": "bool",
          "name": "",
          "type": "bool"
        }
      ],
      "stateMutability": "view",
      "type": "function"
    },
    {
      "inputs": [],
      "name": "symbol",
      "outputs": [
        {
          "internalType": "string",
          "name": "",
          "type": "string"
        }
      ],
      "stateMutability": "view",
      "type": "function"
    },
    {
      "inputs": [
        {
          "internalType": "uint256",
          "name": "index",
          "type": "uint256"
        }
      ],
      "name": "tokenByIndex",
      "outputs": [
        {
          "internalType": "uint256",
          "name": "",
          "type": "uint256"
        }
      ],
      "stateMutability": "view",
      "type": "function"
    },
    {
      "inputs": [
        {
          "internalType": "address",
          "name": "owner",
          "type": "address"
        },
        {
          "internalType": "uint256",
          "name": "index",
          "type": "uint256"
        }
      ],
      "name": "tokenOfOwnerByIndex",
      "outputs": [
        {
          "internalType": "uint256",
          "name": "",
          "type": "uint256"
        }
      ],
      "stateMutability": "view",
      "type": "function"
    },
    {
      "inputs": [],
      "name": "totalSupply",
      "outputs": [
        {
          "internalType": "uint256",
          "name": "",
          "type": "uint256"
        }
      ],
      "stateMutability": "view",
      "type": "function"
    },
    {
      "inputs": [
        {
          "internalType": "address",
          "name": "_from",
          "type": "address"
        },
        {
          "internalType": "address",
          "name": "_to",
          "type": "address"
        },
        {
          "internalType": "uint256",
          "name": "_tokenId",
          "type": "uint256"
        }
      ],
      "name": "transferFrom",
      "outputs": [],
      "stateMutability": "nonpayable",
      "type": "function"
    }
  ],
  "bytecode": "0x60806040523480156200001157600080fd5b5060405162002495380380620024958339818101604052810190620000379190620004c7565b81816200006a7f01ffc9a7a5cef8baa21ed3c5c0d7e23accb804b619e9333b597f47a0d84076e26200025d60201b60201c565b81600190816200007b919062000797565b5080600290816200008d919062000797565b50620000e17f13b182f4c0e5b2efbac0efe6cf6d756c8b89f4b79c5707a043ed9ea740574ee97f7feaf19471f34a12a7eaf32d5f3090aa2260ea8624dc8a138e74e0bf0f623076186200025d60201b60201c565b5050620001e07f5af227006b8981efabb10af200ab71f08976cbce54b4c59ae5c97811d19a398c7fe0c9b09697cad3aa3f2bcb7fdd781becaefa478990b24e83d3bfdb65623d77537f90dba0bef8387ab29f95a1abead857c8ccc338f1038f6fa159fa78fd18aff9f77f8c51fd5fcf1f456ec4eb0f32f68d83471264fe082fac12bcbfd2fa4be9eed6c77f22c82707ba960a14c7592ffb6b8cfaa073fed0048a84cc7fa41f6b5bd8e7f2e47f3a6eb71757dfc6e784c1459d26270140c2c147d95ca985c80026fc5301c3eca17f8a7e378434598edc36d108689a030cbc9d7d465de4f74c71bae1028eed6a881b1818181818186200025d60201b60201c565b620002557f8230223f691b981717299fae9549350a0d894555723531f02108b1f522c1a7977f6da5e1284143cdd2d15038a59bde3be031250f00291d64494c12d967b3a4e0c37fc53637662700e6c65104059db8bba34439e0c32483ab7c34e3ccae52c739549518186200025d60201b60201c565b505062000901565b63ffffffff60e01b817bffffffffffffffffffffffffffffffffffffffffffffffffffffffff191603620002c8576040517f08c379a0000000000000000000000000000000000000000000000000000000008152600401620002bf90620008df565b60405180910390fd5b6001600080837bffffffffffffffffffffffffffffffffffffffffffffffffffffffff19167bffffffffffffffffffffffffffffffffffffffffffffffffffffffff1916815260200190815260200160002060006101000a81548160ff02191690831515021790555050565b6000604051905090565b600080fd5b600080fd5b600080fd5b600080fd5b6000601f19601f8301169050919050565b7f4e487b7100000000000000000000000000000000000000000000000000000000600052604160045260246000fd5b6200039d8262000352565b810181811067ffffffffffffffff82111715620003bf57620003be62000363565b5b80604052505050565b6000620003d462000334565b9050620003e2828262000392565b919050565b600067ffffffffffffffff82111562000405576200040462000363565b5b620004108262000352565b9050602081019050919050565b60005b838110156200043d57808201518184015260208101905062000420565b60008484015250505050565b6000620004606200045a84620003e7565b620003c8565b9050828152602081018484840111156200047f576200047e6200034d565b5b6200048c8482856200041d565b509392505050565b600082601f830112620004ac57620004ab62000348565b5b8151620004be84826020860162000449565b91505092915050565b60008060408385031215620004e157620004e06200033e565b5b600083015167ffffffffffffffff81111562000502576200050162000343565b5b620005108582860162000494565b925050602083015167ffffffffffffffff81111562000534576200053362000343565b5b620005428582860162000494565b9150509250929050565b600081519050919050565b7f4e487b7100000000000000000000000000000000000000000000000000000000600052602260045260246000fd5b600060028204905060018216806200059f57607f821691505b602082108103620005b557620005b462000557565b5b50919050565b60008190508160005260206000209050919050565b60006020601f8301049050919050565b600082821b905092915050565b6000600883026200061f7fffffffffffffffffffffffffffffffffffffffffffffffffffffffffffffffff82620005e0565b6200062b8683620005e0565b95508019841693508086168417925050509392505050565b6000819050919050565b6000819050919050565b600062000678620006726200066c8462000643565b6200064d565b62000643565b9050919050565b6000819050919050565b620006948362000657565b620006ac620006a3826200067f565b848454620005ed565b825550505050565b600090565b620006c3620006b4565b620006d081848462000689565b505050565b5b81811015620006f857620006ec600082620006b9565b600181019050620006d6565b5050565b601f82111562000747576200071181620005bb565b6200071c84620005d0565b810160208510156200072c578190505b620007446200073b85620005d0565b830182620006d5565b50505b505050565b600082821c905092915050565b60006200076c600019846008026200074c565b1980831691505092915050565b600062000787838362000759565b9150826002028217905092915050565b620007a2826200054c565b67ffffffffffffffff811115620007be57620007bd62000363565b5b620007ca825462000586565b620007d7828285620006fc565b600060209050601f8311600181146200080f5760008415620007fa578287015190505b62000806858262000779565b86555062000876565b601f1984166200081f86620005bb565b60005b82811015620008495784890151825560018201915060208501945060208101905062000822565b8683101562000869578489015162000865601f89168262000759565b8355505b6001600288020188555050505b505050505050565b600082825260208201905092915050565b7f4552433136353a20496e76616c696420496e7465726661636500000000000000600082015250565b6000620008c76019836200087e565b9150620008d4826200088f565b602082019050919050565b60006020820190508181036000830152620008fa81620008b8565b9050919050565b611b8480620009116000396000f3fe6080604052600436106100c25760003560e01c80632f745c591161007f57806370a082311161005957806370a082311461029357806395d89b41146102d0578063a22cb465146102fb578063e985e9c514610324576100c2565b80632f745c59146101dc5780634f6ccce7146102195780636352211e14610256576100c2565b806301ffc9a7146100c757806306fdde0314610104578063081812fc1461012f578063095ea7b31461016c57806318160ddd1461018857806323b872dd146101b3575b600080fd5b3480156100d357600080fd5b506100ee60048036038101906100e99190611078565b610361565b6040516100fb91906110c0565b60405180910390f35b34801561011057600080fd5b506101196103c8565b604051610126919061116b565b60405180910390f35b34801561013b57600080fd5b50610156600480360381019061015191906111c3565b61045a565b6040516101639190611231565b60405180910390f35b61018660048036038101906101819190611278565b6104df565b005b34801561019457600080fd5b5061019d61068b565b6040516101aa91906112c7565b60405180910390f35b3480156101bf57600080fd5b506101da60048036038101906101d591906112e2565b610698565b005b3480156101e857600080fd5b5061020360048036038101906101fe9190611278565b6106f1565b60405161021091906112c7565b60405180910390f35b34801561022557600080fd5b50610240600480360381019061023b91906111c3565b6107a1565b60405161024d91906112c7565b60405180910390f35b34801561026257600080fd5b5061027d600480360381019061027891906111c3565b610812565b60405161028a9190611231565b60405180910390f35b34801561029f57600080fd5b506102ba60048036038101906102b59190611335565b6108c3565b6040516102c791906112c7565b60405180910390f35b3480156102dc57600080fd5b506102e5610981565b6040516102f2919061116b565b60405180910390f35b34801561030757600080fd5b50610322600480360381019061031d919061138e565b610a13565b005b34801561033057600080fd5b5061034b600480360381019061034691906113ce565b610b7e565b60405161035891906110c0565b60405180910390f35b6000806000837bffffffffffffffffffffffffffffffffffffffffffffffffffffffff19167bffffffffffffffffffffffffffffffffffffffffffffffffffffffff1916815260200190815260200160002060009054906101000a900460ff169050919050565b6060600180546103d79061143d565b80601f01602080910402602001604051908101604052809291908181526020018280546104039061143d565b80156104505780601f1061042557610100808354040283529160200191610450565b820191906000526020600020905b81548152906001019060200180831161043357829003601f168201915b5050505050905090565b600061046582610c12565b6104a4576040517f08c379a000000000000000000000000000000000000000000000000000000000815260040161049b906114e0565b60405180910390fd5b6005600083815260200190815260200160002060009054906101000a900473ffffffffffffffffffffffffffffffffffffffff169050919050565b60006104ea82610812565b90508073ffffffffffffffffffffffffffffffffffffffff163373ffffffffffffffffffffffffffffffffffffffff16148061052c575061052b8133610b7e565b5b61056b576040517f08c379a000000000000000000000000000000000000000000000000000000000815260040161056290611572565b60405180910390fd5b8073ffffffffffffffffffffffffffffffffffffffff168373ffffffffffffffffffffffffffffffffffffffff16036105d9576040517f08c379a00000000000000000000000000000000000000000000000000000000081526004016105d090611604565b60405180910390fd5b826005600084815260200190815260200160002060006101000a81548173ffffffffffffffffffffffffffffffffffffffff021916908373ffffffffffffffffffffffffffffffffffffffff160217905550818373ffffffffffffffffffffffffffffffffffffffff168273ffffffffffffffffffffffffffffffffffffffff167f8c5be1e5ebec7d5bd14f71427d1e84f3dd0314c0f7b2291e5b200ac8c7c3b92560405160405180910390a4505050565b6000600780549050905090565b6106a23382610c84565b6106e1576040517f08c379a00000000000000000000000000000000000000000000000000000000081526004016106d890611670565b60405180910390fd5b6106ec838383610d62565b505050565b60006106fc836108c3565b821061073d576040517f08c379a0000000000000000000000000000000000000000000000000000000008152600401610734906116dc565b60405180910390fd5b600960008473ffffffffffffffffffffffffffffffffffffffff1673ffffffffffffffffffffffffffffffffffffffff168152602001908152602001600020828154811061078e5761078d6116fc565b5b9060005260206000200154905092915050565b60006107ab61068b565b82106107ec576040517f08c379a00000000000000000000000000000000000000000000000000000000081526004016107e390611777565b60405180910390fd5b60078281548110610800576107ff6116fc565b5b90600052602060002001549050919050565b6000806003600084815260200190815260200160002060009054906101000a900473ffffffffffffffffffffffffffffffffffffffff169050600073ffffffffffffffffffffffffffffffffffffffff168173ffffffffffffffffffffffffffffffffffffffff16036108ba576040517f08c379a00000000000000000000000000000000000000000000000000000000081526004016108b190611809565b60405180910390fd5b80915050919050565b60008073ffffffffffffffffffffffffffffffffffffffff168273ffffffffffffffffffffffffffffffffffffffff1603610933576040517f08c379a000000000000000000000000000000000000000000000000000000000815260040161092a90611809565b60405180910390fd5b61097a600460008473ffffffffffffffffffffffffffffffffffffffff1673ffffffffffffffffffffffffffffffffffffffff168152602001908152602001600020610f6c565b9050919050565b6060600280546109909061143d565b80601f01602080910402602001604051908101604052809291908181526020018280546109bc9061143d565b8015610a095780601f106109de57610100808354040283529160200191610a09565b820191906000526020600020905b8154815290600101906020018083116109ec57829003601f168201915b5050505050905090565b3373ffffffffffffffffffffffffffffffffffffffff168273ffffffffffffffffffffffffffffffffffffffff1603610a81576040517f08c379a0000000000000000000000000000000000000000000000000000000008152600401610a7890611875565b60405180910390fd5b80600660003373ffffffffffffffffffffffffffffffffffffffff1673ffffffffffffffffffffffffffffffffffffffff16815260200190815260200160002060008473ffffffffffffffffffffffffffffffffffffffff1673ffffffffffffffffffffffffffffffffffffffff16815260200190815260200160002060006101000a81548160ff0219169083151502179055508173ffffffffffffffffffffffffffffffffffffffff163373ffffffffffffffffffffffffffffffffffffffff167f17307eab39ab6107e8899845ad3d59bd9653f200f220920489ca2b5937696c3183604051610b7291906110c0565b60405180910390a35050565b6000600660008473ffffffffffffffffffffffffffffffffffffffff1673ffffffffffffffffffffffffffffffffffffffff16815260200190815260200160002060008373ffffffffffffffffffffffffffffffffffffffff1673ffffffffffffffffffffffffffffffffffffffff16815260200190815260200160002060009054906101000a900460ff16905092915050565b6000806003600084815260200190815260200160002060009054906101000a900473ffffffffffffffffffffffffffffffffffffffff169050600073ffffffffffffffffffffffffffffffffffffffff168173ffffffffffffffffffffffffffffffffffffffff161415915050919050565b6000610c8f82610c12565b610cce576040517f08c379a0000000000000000000000000000000000000000000000000000000008152600401610cc590611907565b60405180910390fd5b6000610cd983610812565b90508073ffffffffffffffffffffffffffffffffffffffff168473ffffffffffffffffffffffffffffffffffffffff161480610d4857508373ffffffffffffffffffffffffffffffffffffffff16610d308461045a565b73ffffffffffffffffffffffffffffffffffffffff16145b80610d595750610d588185610b7e565b5b91505092915050565b600073ffffffffffffffffffffffffffffffffffffffff168273ffffffffffffffffffffffffffffffffffffffff1603610dd1576040517f08c379a0000000000000000000000000000000000000000000000000000000008152600401610dc890611999565b60405180910390fd5b8273ffffffffffffffffffffffffffffffffffffffff16610df182610812565b73ffffffffffffffffffffffffffffffffffffffff1614610e47576040517f08c379a0000000000000000000000000000000000000000000000000000000008152600401610e3e90611a2b565b60405180910390fd5b8173ffffffffffffffffffffffffffffffffffffffff166003600083815260200190815260200160002060009054906101000a90505050610ec5600460008573ffffffffffffffffffffffffffffffffffffffff1673ffffffffffffffffffffffffffffffffffffffff168152602001908152602001600020610f7a565b610f0c600460008473ffffffffffffffffffffffffffffffffffffffff1673ffffffffffffffffffffffffffffffffffffffff168152602001908152602001600020610f9d565b808273ffffffffffffffffffffffffffffffffffffffff168473ffffffffffffffffffffffffffffffffffffffff167fddf252ad1be2c89b69c2b068fc378daa952ba7f163c4a11628f55a4df523b3ef60405160405180910390a4505050565b600081600001549050919050565b610f9260018260000154610fbc90919063ffffffff16565b816000018190555050565b6001816000016000828254610fb29190611a7a565b9250508190555050565b600082821115611001576040517f08c379a0000000000000000000000000000000000000000000000000000000008152600401610ff890611afa565b60405180910390fd5b6000828461100f9190611b1a565b90508091505092915050565b600080fd5b60007fffffffff0000000000000000000000000000000000000000000000000000000082169050919050565b61105581611020565b811461106057600080fd5b50565b6000813590506110728161104c565b92915050565b60006020828403121561108e5761108d61101b565b5b600061109c84828501611063565b91505092915050565b60008115159050919050565b6110ba816110a5565b82525050565b60006020820190506110d560008301846110b1565b92915050565b600081519050919050565b600082825260208201905092915050565b60005b838110156111155780820151818401526020810190506110fa565b60008484015250505050565b6000601f19601f8301169050919050565b600061113d826110db565b61114781856110e6565b93506111578185602086016110f7565b61116081611121565b840191505092915050565b600060208201905081810360008301526111858184611132565b905092915050565b6000819050919050565b6111a08161118d565b81146111ab57600080fd5b50565b6000813590506111bd81611197565b92915050565b6000602082840312156111d9576111d861101b565b5b60006111e7848285016111ae565b91505092915050565b600073ffffffffffffffffffffffffffffffffffffffff82169050919050565b600061121b826111f0565b9050919050565b61122b81611210565b82525050565b60006020820190506112466000830184611222565b92915050565b61125581611210565b811461126057600080fd5b50565b6000813590506112728161124c565b92915050565b6000806040838503121561128f5761128e61101b565b5b600061129d85828601611263565b92505060206112ae858286016111ae565b9150509250929050565b6112c18161118d565b82525050565b60006020820190506112dc60008301846112b8565b92915050565b6000806000606084860312156112fb576112fa61101b565b5b600061130986828701611263565b935050602061131a86828701611263565b925050604061132b868287016111ae565b9150509250925092565b60006020828403121561134b5761134a61101b565b5b600061135984828501611263565b91505092915050565b61136b816110a5565b811461137657600080fd5b50565b60008135905061138881611362565b92915050565b600080604083850312156113a5576113a461101b565b5b60006113b385828601611263565b92505060206113c485828601611379565b9150509250929050565b600080604083850312156113e5576113e461101b565b5b60006113f385828601611263565b925050602061140485828601611263565b9150509250929050565b7f4e487b7100000000000000000000000000000000000000000000000000000000600052602260045260246000fd5b6000600282049050600182168061145557607f821691505b6020821081036114685761146761140e565b5b50919050565b7f4552433732313a20617070726f76656420717565727920666f72206e6f6e657860008201527f697374656e7420746f6b656e0000000000000000000000000000000000000000602082015250565b60006114ca602c836110e6565b91506114d58261146e565b604082019050919050565b600060208201905081810360008301526114f9816114bd565b9050919050565b7f455243373231204552524f523a2046756e6374696f6e2063616c6c657220697360008201527f206e6f7420746865206f776e6572000000000000000000000000000000000000602082015250565b600061155c602e836110e6565b915061156782611500565b604082019050919050565b6000602082019050818103600083015261158b8161154f565b9050919050565b7f455243373231204552524f523a20417070726f76657220616e64205f746f206160008201527f7265207468652073616d65000000000000000000000000000000000000000000602082015250565b60006115ee602b836110e6565b91506115f982611592565b604082019050919050565b6000602082019050818103600083015261161d816115e1565b9050919050565b7f455243373231204552524f523a204e6f7420417070726f766564000000000000600082015250565b600061165a601a836110e6565b915061166582611624565b602082019050919050565b600060208201905081810360008301526116898161164d565b9050919050565b7f4f776e657220696e646578206973206f7574206f6620626f756e647300000000600082015250565b60006116c6601c836110e6565b91506116d182611690565b602082019050919050565b600060208201905081810360008301526116f5816116b9565b9050919050565b7f4e487b7100000000000000000000000000000000000000000000000000000000600052603260045260246000fd5b7f476c6f62616c20696e646578206973206f7574206f6620626f756e6473000000600082015250565b6000611761601d836110e6565b915061176c8261172b565b602082019050919050565b6000602082019050818103600083015261179081611754565b9050919050565b7f4572726f723a204f776e657220717565727920666f72206e6f6e2d657869737460008201527f656e7420746f6b656e0000000000000000000000000000000000000000000000602082015250565b60006117f36029836110e6565b91506117fe82611797565b604082019050919050565b60006020820190508181036000830152611822816117e6565b9050919050565b7f4552433732313a20617070726f766520746f2063616c6c657200000000000000600082015250565b600061185f6019836110e6565b915061186a82611829565b602082019050919050565b6000602082019050818103600083015261188e81611852565b9050919050565b7f455243373231204552524f523a20546f6b656e20646f6573206e6f742065786960008201527f7374000000000000000000000000000000000000000000000000000000000000602082015250565b60006118f16022836110e6565b91506118fc82611895565b604082019050919050565b60006020820190508181036000830152611920816118e4565b9050919050565b7f455243373231204552524f523a205472616e7366657220746f207a65726f206160008201527f6464726573730000000000000000000000000000000000000000000000000000602082015250565b60006119836026836110e6565b915061198e82611927565b604082019050919050565b600060208201905081810360008301526119b281611976565b9050919050565b7f455243373231204552524f523a20546869732061646472657373206973206e6f60008201527f7420746865206f776e6572000000000000000000000000000000000000000000602082015250565b6000611a15602b836110e6565b9150611a20826119b9565b604082019050919050565b60006020820190508181036000830152611a4481611a08565b9050919050565b7f4e487b7100000000000000000000000000000000000000000000000000000000600052601160045260246000fd5b6000611a858261118d565b9150611a908361118d565b9250828201905080821115611aa857611aa7611a4b565b5b92915050565b7f536166654d6174683a205375627472616374696f6e204f766572666c6f770000600082015250565b6000611ae4601e836110e6565b9150611aef82611aae565b602082019050919050565b60006020820190508181036000830152611b1381611ad7565b9050919050565b6000611b258261118d565b9150611b308361118d565b9250828203905081811115611b4857611b47611a4b565b5b9291505056fea26469706673582212201e1eee52b9345cda8a49e43b91d05f001aa6ef4b707af6557ff0a81ec8a3daf964736f6c63430008110033",
  "immutableReferences": {},
  "source": "// SPDX-License-Identifier: MIT\npragma solidity ^0.8.0;\n\n// Connects the other ERC contracts to our primary (KryptoBirdz)\n\nimport \"./ERC721Metadata.sol\";\nimport \"./ERC721Enumerable.sol\";\n\n\n\ncontract ERC721Connector is ERC721Metadata, ERC721Enumerable {\n    //we want to carry the metadata over \n\n    constructor (string memory name, string memory symbol) ERC721Metadata(name, symbol){\n\n    }\n}\n",
  "sourcePath": "/Users/maximbelioglo/Desktop/NFT_Marketplace/Source Code/src/contracts/ERC721Connector.sol",
  "compiler": {
    "name": "solc",
    "version": "0.8.17+commit.8df45f5f.Emscripten.clang"
  },
  "schemaVersion": "3.4.11",
  "updatedAt": "2023-01-24T01:35:49.312Z",
  "devdoc": {
    "kind": "dev",
    "methods": {
      "balanceOf(address)": {
        "details": "NFTs assigned to the zero address are considered invalid, and this  function throws for queries about the zero address.",
        "params": {
          "_owner": "An address for whom to query the balance"
        },
        "returns": {
          "_0": "The number of NFTs owned by `_owner`, possibly zero"
        }
      },
      "getApproved(uint256)": {
        "details": "Throws if `_tokenId` is not a valid NFT.",
        "params": {
          "_tokenId": "The NFT to find the approved address for"
        },
        "returns": {
          "_0": "The approved address for this NFT, or the zero address if there is none"
        }
      },
      "isApprovedForAll(address,address)": {
        "params": {
          "_operator": "The address that acts on behalf of the owner",
          "_owner": "The address that owns the NFTs"
        },
        "returns": {
          "_0": "True if `_operator` is an approved operator for `_owner`, false otherwise"
        }
      },
      "ownerOf(uint256)": {
        "details": "NFTs assigned to zero address are considered invalid, and queries  about them do throw.",
        "params": {
          "_tokenId": "The identifier for an NFT"
        },
        "returns": {
          "_0": "The address of the owner of the NFT"
        }
      },
      "setApprovalForAll(address,bool)": {
        "details": "Emits the ApprovalForAll event. The contract MUST allow  multiple operators per owner.",
        "params": {
          "_approved": "True if the operator is approved, false to revoke approval",
          "_operator": "Address to add to the set of authorized operators"
        }
      },
      "totalSupply()": {
        "returns": {
          "_0": "A count of valid NFTs tracked by this contract, where each one of  them has an assigned and queryable owner not equal to the zero address"
        }
      },
      "transferFrom(address,address,uint256)": {
        "details": "Throws unless `msg.sender` is the current owner, an authorized  operator, or the approved address for this NFT. Throws if `_from` is  not the current owner. Throws if `_to` is the zero address. Throws if  `_tokenId` is not a valid NFT.",
        "params": {
          "_from": "The current owner of the NFT",
          "_to": "The new owner",
          "_tokenId": "The NFT to transfer"
        }
      }
    },
    "version": 1
  },
  "userdoc": {
    "kind": "user",
    "methods": {
      "balanceOf(address)": {
        "notice": "Count all NFTs assigned to an owner"
      },
      "getApproved(uint256)": {
        "notice": "Get the approved address for a single NFT"
      },
      "isApprovedForAll(address,address)": {
        "notice": "Query if an address is an authorized operator for another address"
      },
      "name()": {
        "notice": "A descriptive name for a collection of NFTs in this contract"
      },
      "ownerOf(uint256)": {
        "notice": "Find the owner of an NFT"
      },
      "setApprovalForAll(address,bool)": {
        "notice": "Enable or disable approval for a third party (\"operator\") to manage  all of `msg.sender`'s assets"
      },
      "symbol()": {
        "notice": "An abbreviated name for NFTs in this contract"
      },
      "tokenByIndex(uint256)": {
        "notice": "(sort order not specified)"
      },
      "tokenOfOwnerByIndex(address,uint256)": {
        "notice": "(sort order not specified)"
      },
      "totalSupply()": {
        "notice": "Count NFTs tracked by this contract"
      },
      "transferFrom(address,address,uint256)": {
        "notice": "Transfer ownership of an NFT -- THE CALLER IS RESPONSIBLE  TO CONFIRM THAT `_to` IS CAPABLE OF RECEIVING NFTS OR ELSE  THEY MAY BE PERMANENTLY LOST"
      }
    },
    "version": 1
  }
}