{
  "contractName": "ERC721",
  "abi": [
    {
      "inputs": [],
      "stateMutability": "nonpayable",
      "type": "constructor"
    },
    {
      "anonymous": false,
      "inputs": [
        {
          "indexed": true,
          "internalType": "address",
          "name": "_owner",
          "type": "address"
        },
        {
          "indexed": true,
          "internalType": "address",
          "name": "_approved",
          "type": "address"
        },
        {
          "indexed": true,
          "internalType": "uint256",
          "name": "_tokenId",
          "type": "uint256"
        }
      ],
      "name": "Approval",
      "type": "event"
    },
    {
      "anonymous": false,
      "inputs": [
        {
          "indexed": true,
          "internalType": "address",
          "name": "_owner",
          "type": "address"
        },
        {
          "indexed": true,
          "internalType": "address",
          "name": "_operator",
          "type": "address"
        },
        {
          "indexed": false,
          "internalType": "bool",
          "name": "_approved",
          "type": "bool"
        }
      ],
      "name": "ApprovalForAll",
      "type": "event"
    },
    {
      "anonymous": false,
      "inputs": [
        {
          "indexed": true,
          "internalType": "address",
          "name": "_from",
          "type": "address"
        },
        {
          "indexed": true,
          "internalType": "address",
          "name": "_to",
          "type": "address"
        },
        {
          "indexed": true,
          "internalType": "uint256",
          "name": "_tokenId",
          "type": "uint256"
        }
      ],
      "name": "Transfer",
      "type": "event"
    },
    {
      "inputs": [
        {
          "internalType": "bytes4",
          "name": "interfaceId",
          "type": "bytes4"
        }
      ],
      "name": "supportsInterface",
      "outputs": [
        {
          "internalType": "bool",
          "name": "",
          "type": "bool"
        }
      ],
      "stateMutability": "view",
      "type": "function"
    },
    {
      "inputs": [
        {
          "internalType": "address",
          "name": "_owner",
          "type": "address"
        }
      ],
      "name": "balanceOf",
      "outputs": [
        {
          "internalType": "uint256",
          "name": "",
          "type": "uint256"
        }
      ],
      "stateMutability": "view",
      "type": "function"
    },
    {
      "inputs": [
        {
          "internalType": "uint256",
          "name": "_tokenId",
          "type": "uint256"
        }
      ],
      "name": "ownerOf",
      "outputs": [
        {
          "internalType": "address",
          "name": "",
          "type": "address"
        }
      ],
      "stateMutability": "view",
      "type": "function"
    },
    {
      "inputs": [
        {
          "internalType": "address",
          "name": "_from",
          "type": "address"
        },
        {
          "internalType": "address",
          "name": "_to",
          "type": "address"
        },
        {
          "internalType": "uint256",
          "name": "_tokenId",
          "type": "uint256"
        }
      ],
      "name": "transferFrom",
      "outputs": [],
      "stateMutability": "nonpayable",
      "type": "function"
    },
    {
      "inputs": [
        {
          "internalType": "address",
          "name": "_to",
          "type": "address"
        },
        {
          "internalType": "uint256",
          "name": "_tokenId",
          "type": "uint256"
        }
      ],
      "name": "approve",
      "outputs": [],
      "stateMutability": "payable",
      "type": "function"
    },
    {
      "inputs": [
        {
          "internalType": "uint256",
          "name": "_tokenId",
          "type": "uint256"
        }
      ],
      "name": "getApproved",
      "outputs": [
        {
          "internalType": "address",
          "name": "",
          "type": "address"
        }
      ],
      "stateMutability": "view",
      "type": "function"
    },
    {
      "inputs": [
        {
          "internalType": "address",
          "name": "_operator",
          "type": "address"
        },
        {
          "internalType": "bool",
          "name": "_approved",
          "type": "bool"
        }
      ],
      "name": "setApprovalForAll",
      "outputs": [],
      "stateMutability": "nonpayable",
      "type": "function"
    },
    {
      "inputs": [
        {
          "internalType": "address",
          "name": "_owner",
          "type": "address"
        },
        {
          "internalType": "address",
          "name": "_operator",
          "type": "address"
        }
      ],
      "name": "isApprovedForAll",
      "outputs": [
        {
          "internalType": "bool",
          "name": "",
          "type": "bool"
        }
      ],
      "stateMutability": "view",
      "type": "function"
    }
  ],
  "bytecode": "0x60806040523480156200001157600080fd5b50620000437f01ffc9a7a5cef8baa21ed3c5c0d7e23accb804b619e9333b597f47a0d84076e26200014660201b60201c565b620001407f5af227006b8981efabb10af200ab71f08976cbce54b4c59ae5c97811d19a398c7fe0c9b09697cad3aa3f2bcb7fdd781becaefa478990b24e83d3bfdb65623d77537f90dba0bef8387ab29f95a1abead857c8ccc338f1038f6fa159fa78fd18aff9f77f8c51fd5fcf1f456ec4eb0f32f68d83471264fe082fac12bcbfd2fa4be9eed6c77f22c82707ba960a14c7592ffb6b8cfaa073fed0048a84cc7fa41f6b5bd8e7f2e47f3a6eb71757dfc6e784c1459d26270140c2c147d95ca985c80026fc5301c3eca17f8a7e378434598edc36d108689a030cbc9d7d465de4f74c71bae1028eed6a881b1818181818186200014660201b60201c565b620002a0565b63ffffffff60e01b817bffffffffffffffffffffffffffffffffffffffffffffffffffffffff191603620001b1576040517f08c379a0000000000000000000000000000000000000000000000000000000008152600401620001a8906200027e565b60405180910390fd5b6001600080837bffffffffffffffffffffffffffffffffffffffffffffffffffffffff19167bffffffffffffffffffffffffffffffffffffffffffffffffffffffff1916815260200190815260200160002060006101000a81548160ff02191690831515021790555050565b600082825260208201905092915050565b7f4552433136353a20496e76616c696420496e7465726661636500000000000000600082015250565b6000620002666019836200021d565b915062000273826200022e565b602082019050919050565b60006020820190508181036000830152620002998162000257565b9050919050565b6115e880620002b06000396000f3fe60806040526004361061007b5760003560e01c80636352211e1161004e5780636352211e1461013f57806370a082311461017c578063a22cb465146101b9578063e985e9c5146101e25761007b565b806301ffc9a714610080578063081812fc146100bd578063095ea7b3146100fa57806323b872dd14610116575b600080fd5b34801561008c57600080fd5b506100a760048036038101906100a29190610ce4565b61021f565b6040516100b49190610d2c565b60405180910390f35b3480156100c957600080fd5b506100e460048036038101906100df9190610d7d565b610286565b6040516100f19190610deb565b60405180910390f35b610114600480360381019061010f9190610e32565b61030b565b005b34801561012257600080fd5b5061013d60048036038101906101389190610e72565b6104b7565b005b34801561014b57600080fd5b5061016660048036038101906101619190610d7d565b610510565b6040516101739190610deb565b60405180910390f35b34801561018857600080fd5b506101a3600480360381019061019e9190610ec5565b6105c1565b6040516101b09190610f01565b60405180910390f35b3480156101c557600080fd5b506101e060048036038101906101db9190610f48565b61067f565b005b3480156101ee57600080fd5b5061020960048036038101906102049190610f88565b6107ea565b6040516102169190610d2c565b60405180910390f35b6000806000837bffffffffffffffffffffffffffffffffffffffffffffffffffffffff19167bffffffffffffffffffffffffffffffffffffffffffffffffffffffff1916815260200190815260200160002060009054906101000a900460ff169050919050565b60006102918261087e565b6102d0576040517f08c379a00000000000000000000000000000000000000000000000000000000081526004016102c79061104b565b60405180910390fd5b6003600083815260200190815260200160002060009054906101000a900473ffffffffffffffffffffffffffffffffffffffff169050919050565b600061031682610510565b90508073ffffffffffffffffffffffffffffffffffffffff163373ffffffffffffffffffffffffffffffffffffffff161480610358575061035781336107ea565b5b610397576040517f08c379a000000000000000000000000000000000000000000000000000000000815260040161038e906110dd565b60405180910390fd5b8073ffffffffffffffffffffffffffffffffffffffff168373ffffffffffffffffffffffffffffffffffffffff1603610405576040517f08c379a00000000000000000000000000000000000000000000000000000000081526004016103fc9061116f565b60405180910390fd5b826003600084815260200190815260200160002060006101000a81548173ffffffffffffffffffffffffffffffffffffffff021916908373ffffffffffffffffffffffffffffffffffffffff160217905550818373ffffffffffffffffffffffffffffffffffffffff168273ffffffffffffffffffffffffffffffffffffffff167f8c5be1e5ebec7d5bd14f71427d1e84f3dd0314c0f7b2291e5b200ac8c7c3b92560405160405180910390a4505050565b6104c133826108f0565b610500576040517f08c379a00000000000000000000000000000000000000000000000000000000081526004016104f7906111db565b60405180910390fd5b61050b8383836109ce565b505050565b6000806001600084815260200190815260200160002060009054906101000a900473ffffffffffffffffffffffffffffffffffffffff169050600073ffffffffffffffffffffffffffffffffffffffff168173ffffffffffffffffffffffffffffffffffffffff16036105b8576040517f08c379a00000000000000000000000000000000000000000000000000000000081526004016105af9061126d565b60405180910390fd5b80915050919050565b60008073ffffffffffffffffffffffffffffffffffffffff168273ffffffffffffffffffffffffffffffffffffffff1603610631576040517f08c379a00000000000000000000000000000000000000000000000000000000081526004016106289061126d565b60405180910390fd5b610678600260008473ffffffffffffffffffffffffffffffffffffffff1673ffffffffffffffffffffffffffffffffffffffff168152602001908152602001600020610bd8565b9050919050565b3373ffffffffffffffffffffffffffffffffffffffff168273ffffffffffffffffffffffffffffffffffffffff16036106ed576040517f08c379a00000000000000000000000000000000000000000000000000000000081526004016106e4906112d9565b60405180910390fd5b80600460003373ffffffffffffffffffffffffffffffffffffffff1673ffffffffffffffffffffffffffffffffffffffff16815260200190815260200160002060008473ffffffffffffffffffffffffffffffffffffffff1673ffffffffffffffffffffffffffffffffffffffff16815260200190815260200160002060006101000a81548160ff0219169083151502179055508173ffffffffffffffffffffffffffffffffffffffff163373ffffffffffffffffffffffffffffffffffffffff167f17307eab39ab6107e8899845ad3d59bd9653f200f220920489ca2b5937696c31836040516107de9190610d2c565b60405180910390a35050565b6000600460008473ffffffffffffffffffffffffffffffffffffffff1673ffffffffffffffffffffffffffffffffffffffff16815260200190815260200160002060008373ffffffffffffffffffffffffffffffffffffffff1673ffffffffffffffffffffffffffffffffffffffff16815260200190815260200160002060009054906101000a900460ff16905092915050565b6000806001600084815260200190815260200160002060009054906101000a900473ffffffffffffffffffffffffffffffffffffffff169050600073ffffffffffffffffffffffffffffffffffffffff168173ffffffffffffffffffffffffffffffffffffffff161415915050919050565b60006108fb8261087e565b61093a576040517f08c379a00000000000000000000000000000000000000000000000000000000081526004016109319061136b565b60405180910390fd5b600061094583610510565b90508073ffffffffffffffffffffffffffffffffffffffff168473ffffffffffffffffffffffffffffffffffffffff1614806109b457508373ffffffffffffffffffffffffffffffffffffffff1661099c84610286565b73ffffffffffffffffffffffffffffffffffffffff16145b806109c557506109c481856107ea565b5b91505092915050565b600073ffffffffffffffffffffffffffffffffffffffff168273ffffffffffffffffffffffffffffffffffffffff1603610a3d576040517f08c379a0000000000000000000000000000000000000000000000000000000008152600401610a34906113fd565b60405180910390fd5b8273ffffffffffffffffffffffffffffffffffffffff16610a5d82610510565b73ffffffffffffffffffffffffffffffffffffffff1614610ab3576040517f08c379a0000000000000000000000000000000000000000000000000000000008152600401610aaa9061148f565b60405180910390fd5b8173ffffffffffffffffffffffffffffffffffffffff166001600083815260200190815260200160002060009054906101000a90505050610b31600260008573ffffffffffffffffffffffffffffffffffffffff1673ffffffffffffffffffffffffffffffffffffffff168152602001908152602001600020610be6565b610b78600260008473ffffffffffffffffffffffffffffffffffffffff1673ffffffffffffffffffffffffffffffffffffffff168152602001908152602001600020610c09565b808273ffffffffffffffffffffffffffffffffffffffff168473ffffffffffffffffffffffffffffffffffffffff167fddf252ad1be2c89b69c2b068fc378daa952ba7f163c4a11628f55a4df523b3ef60405160405180910390a4505050565b600081600001549050919050565b610bfe60018260000154610c2890919063ffffffff16565b816000018190555050565b6001816000016000828254610c1e91906114de565b9250508190555050565b600082821115610c6d576040517f08c379a0000000000000000000000000000000000000000000000000000000008152600401610c649061155e565b60405180910390fd5b60008284610c7b919061157e565b90508091505092915050565b600080fd5b60007fffffffff0000000000000000000000000000000000000000000000000000000082169050919050565b610cc181610c8c565b8114610ccc57600080fd5b50565b600081359050610cde81610cb8565b92915050565b600060208284031215610cfa57610cf9610c87565b5b6000610d0884828501610ccf565b91505092915050565b60008115159050919050565b610d2681610d11565b82525050565b6000602082019050610d416000830184610d1d565b92915050565b6000819050919050565b610d5a81610d47565b8114610d6557600080fd5b50565b600081359050610d7781610d51565b92915050565b600060208284031215610d9357610d92610c87565b5b6000610da184828501610d68565b91505092915050565b600073ffffffffffffffffffffffffffffffffffffffff82169050919050565b6000610dd582610daa565b9050919050565b610de581610dca565b82525050565b6000602082019050610e006000830184610ddc565b92915050565b610e0f81610dca565b8114610e1a57600080fd5b50565b600081359050610e2c81610e06565b92915050565b60008060408385031215610e4957610e48610c87565b5b6000610e5785828601610e1d565b9250506020610e6885828601610d68565b9150509250929050565b600080600060608486031215610e8b57610e8a610c87565b5b6000610e9986828701610e1d565b9350506020610eaa86828701610e1d565b9250506040610ebb86828701610d68565b9150509250925092565b600060208284031215610edb57610eda610c87565b5b6000610ee984828501610e1d565b91505092915050565b610efb81610d47565b82525050565b6000602082019050610f166000830184610ef2565b92915050565b610f2581610d11565b8114610f3057600080fd5b50565b600081359050610f4281610f1c565b92915050565b60008060408385031215610f5f57610f5e610c87565b5b6000610f6d85828601610e1d565b9250506020610f7e85828601610f33565b9150509250929050565b60008060408385031215610f9f57610f9e610c87565b5b6000610fad85828601610e1d565b9250506020610fbe85828601610e1d565b9150509250929050565b600082825260208201905092915050565b7f4552433732313a20617070726f76656420717565727920666f72206e6f6e657860008201527f697374656e7420746f6b656e0000000000000000000000000000000000000000602082015250565b6000611035602c83610fc8565b915061104082610fd9565b604082019050919050565b6000602082019050818103600083015261106481611028565b9050919050565b7f455243373231204552524f523a2046756e6374696f6e2063616c6c657220697360008201527f206e6f7420746865206f776e6572000000000000000000000000000000000000602082015250565b60006110c7602e83610fc8565b91506110d28261106b565b604082019050919050565b600060208201905081810360008301526110f6816110ba565b9050919050565b7f455243373231204552524f523a20417070726f76657220616e64205f746f206160008201527f7265207468652073616d65000000000000000000000000000000000000000000602082015250565b6000611159602b83610fc8565b9150611164826110fd565b604082019050919050565b600060208201905081810360008301526111888161114c565b9050919050565b7f455243373231204552524f523a204e6f7420417070726f766564000000000000600082015250565b60006111c5601a83610fc8565b91506111d08261118f565b602082019050919050565b600060208201905081810360008301526111f4816111b8565b9050919050565b7f4572726f723a204f776e657220717565727920666f72206e6f6e2d657869737460008201527f656e7420746f6b656e0000000000000000000000000000000000000000000000602082015250565b6000611257602983610fc8565b9150611262826111fb565b604082019050919050565b600060208201905081810360008301526112868161124a565b9050919050565b7f4552433732313a20617070726f766520746f2063616c6c657200000000000000600082015250565b60006112c3601983610fc8565b91506112ce8261128d565b602082019050919050565b600060208201905081810360008301526112f2816112b6565b9050919050565b7f455243373231204552524f523a20546f6b656e20646f6573206e6f742065786960008201527f7374000000000000000000000000000000000000000000000000000000000000602082015250565b6000611355602283610fc8565b9150611360826112f9565b604082019050919050565b6000602082019050818103600083015261138481611348565b9050919050565b7f455243373231204552524f523a205472616e7366657220746f207a65726f206160008201527f6464726573730000000000000000000000000000000000000000000000000000602082015250565b60006113e7602683610fc8565b91506113f28261138b565b604082019050919050565b60006020820190508181036000830152611416816113da565b9050919050565b7f455243373231204552524f523a20546869732061646472657373206973206e6f60008201527f7420746865206f776e6572000000000000000000000000000000000000000000602082015250565b6000611479602b83610fc8565b91506114848261141d565b604082019050919050565b600060208201905081810360008301526114a88161146c565b9050919050565b7f4e487b7100000000000000000000000000000000000000000000000000000000600052601160045260246000fd5b60006114e982610d47565b91506114f483610d47565b925082820190508082111561150c5761150b6114af565b5b92915050565b7f536166654d6174683a205375627472616374696f6e204f766572666c6f770000600082015250565b6000611548601e83610fc8565b915061155382611512565b602082019050919050565b600060208201905081810360008301526115778161153b565b9050919050565b600061158982610d47565b915061159483610d47565b92508282039050818111156115ac576115ab6114af565b5b9291505056fea26469706673582212206ed26ddcb618cc2d173a26f2256ea7f2fc5e8a660d01b4cbbd318ffe32e1b41164736f6c63430008110033",
  "immutableReferences": {},
  "source": "// SPDX-License-Identifier: MIT\npragma solidity ^0.8.0;\n\nimport \"./interfaces/IERC165.sol\";\nimport \"./ERC165.sol\";\nimport \"./interfaces/IERC721.sol\";\nimport \"./Libraries/Counters.sol\";\n\n\ncontract ERC721 is ERC165, IERC721 {\n    using Counters for Counters.Counter;\n    using SafeMath for uint;\n\n    //setting event for _mint() and making indexed to access individual parts of the log \n    //event Transfer(address indexed from, address indexed to, uint indexed tokenId);\n\n    //event for transfer approvals \n    //approved = receiver (who is being approved)\n    //event Approval(address indexed owner, address indexed approved, uint indexed tokenId);\n\n    //Emitted when `owner` enables or disables (`approved`) `operator` to manage all of its assets.\n    //event ApprovalForAll(address indexed owner, address indexed operator, bool approved);\n\n\n    /* \n    Minting function: \n        1. NFT to point to an address\n        2. Keep track of token IDs \n        3. Keep track of token owner addresses mapped to token IDs \n        4. Keep track of how many tokes an owner address has \n        5. Create event that emits the transfer log - contract address, where its being minted to, ID \n    */\n\n    //mapping from token ID to owner \n    mapping (uint => address) private _tokenOwner; \n\n    //mapping from owner to number of owned tokens \n    mapping (address => Counters.Counter) private _ownedTokenCount; \n\n    //mapping from tokenId to approved addresses \n    mapping (uint => address) private _tokenApprovals; \n\n    // Mapping from owner to operator approvals\n    mapping(address => mapping(address => bool)) private _operatorApprovals;\n\n    //so that the interface is registered at runtime  \n    constructor () {\n        _registerInterface(bytes4(\n            keccak256(\"balanceOf(bytes4)\")\n            ^keccak256(\"ownerOf(bytes4)\")\n            ^keccak256(\"transferFrom(bytes4)\")\n            ^keccak256(\"approve(bytes4)\")\n            ^keccak256(\"setApprovalForAll(bytes4)\")\n            ^keccak256(\"isApprovedForAll(bytes4)\")\n            ^keccak256(\"getApproved(bytes4)\")));\n    }\n\n    //balanceOf is standard function from EIP. Check documention for more info. \n    //counts all NFTs assigned to an owner\n    function balanceOf(address _owner) public view override returns(uint){\n        require(_owner != address(0), \"Error: Owner query for non-existent token\");\n        return _ownedTokenCount[_owner].current();\n    }\n\n    //ownerOf is standard function from EIP. Check documention for more info. \n    //finds the owner of an NFT\n    //_tokenId array starts at 0!\n    function ownerOf(uint _tokenId) public view override returns(address){ //flip back to external\n        address owner = _tokenOwner[_tokenId];\n        require(owner != address(0), \"Error: Owner query for non-existent token\");\n        return owner;\n    }\n\n\n    //checking if token already exists \n    function _exists(uint tokenId) internal view returns(bool){\n        address owner = _tokenOwner[tokenId];\n\n        //returning truthienss that address is not 0\n        return owner != address(0);\n    }\n\n    //minting function \n    //virtual keyword means we override this function in ERC721Enumerable \n    function _mint (address to, uint tokenId) internal virtual {\n\n        require(to != address(0), \"ERC721: Minting to a zero address\");\n        require(!_exists(tokenId), \"ERC721: Token already minted\");\n\n        _tokenOwner[tokenId] = to; \n        _ownedTokenCount[to].increment(); \n\n        emit Transfer(address(0), to, tokenId);\n    }\n\n    /// @notice Transfer ownership of an NFT -- THE CALLER IS RESPONSIBLE\n    ///  TO CONFIRM THAT `_to` IS CAPABLE OF RECEIVING NFTS OR ELSE\n    ///  THEY MAY BE PERMANENTLY LOST\n    /// @dev Throws unless `msg.sender` is the current owner, an authorized\n    ///  operator, or the approved address for this NFT. Throws if `_from` is\n    ///  not the current owner. Throws if `_to` is the zero address. Throws if\n    ///  `_tokenId` is not a valid NFT.\n    /// @param _from The current owner of the NFT\n    /// @param _to The new owner\n    /// @param _tokenId The NFT to transfer\n    function _transferFrom(address _from, address _to, uint256 _tokenId) internal{\n\n        require(_to != address(0), \"ERC721 ERROR: Transfer to zero address\");\n        require(ownerOf(_tokenId) == _from, \"ERC721 ERROR: This address is not the owner\");\n\n        //assigning token to _to address\n        _tokenOwner[_tokenId] == _to;\n        \n        //reduce ownership of _from by 1\n        _ownedTokenCount[_from].decrement();\n\n        //increase ownership of _to by 1\n        _ownedTokenCount[_to].increment(); \n\n        emit Transfer(_from, _to, _tokenId);\n    }\n\n    function transferFrom(address _from, address _to, uint256 _tokenId) public override {\n        require(isApprovedOrOwner(msg.sender, _tokenId), \"ERC721 ERROR: Not Approved\");\n        _transferFrom(_from, _to, _tokenId);\n    }\n\n    //1. require person approving is the owner \n    //2. approve an address to a token (tokenId)\n    //3. require that we can't send tokens from owner to current caller (can't appvove sending to yourself)\n    //4. update the mapping of approval addresses\n    function approve(address _to, uint _tokenId) public payable {\n        address owner = ownerOf(_tokenId);\n        require(\n            msg.sender == owner || isApprovedForAll(owner, msg.sender), \n            \"ERC721 ERROR: Function caller is not the owner\");\n        require(_to != owner, \"ERC721 ERROR: Approver and _to are the same\");\n\n        _tokenApprovals[_tokenId] = _to;\n\n        emit Approval(owner, _to, _tokenId);\n    }\n\n\n    /// @notice Get the approved address for a single NFT\n    /// @dev Throws if `_tokenId` is not a valid NFT.\n    /// @param _tokenId The NFT to find the approved address for\n    /// @return The approved address for this NFT, or the zero address if there is none\n    function getApproved(uint256 _tokenId) public view returns (address){\n        require(_exists(_tokenId), \"ERC721: approved query for nonexistent token\");\n\n        return _tokenApprovals[_tokenId];\n    }\n\n    /// @notice Enable or disable approval for a third party (\"operator\") to manage\n    ///  all of `msg.sender`'s assets\n    /// @dev Emits the ApprovalForAll event. The contract MUST allow\n    ///  multiple operators per owner.\n    /// @param _operator Address to add to the set of authorized operators\n    /// @param _approved True if the operator is approved, false to revoke approval\n    function setApprovalForAll(address _operator, bool _approved) public {\n        require(_operator != msg.sender, \"ERC721: approve to caller\");\n\n        _operatorApprovals[msg.sender][_operator] = _approved;\n        emit ApprovalForAll(msg.sender, _operator, _approved);\n    }\n\n    /// @notice Query if an address is an authorized operator for another address\n    /// @param _owner The address that owns the NFTs\n    /// @param _operator The address that acts on behalf of the owner\n    /// @return True if `_operator` is an approved operator for `_owner`, false otherwise\n    function isApprovedForAll(address _owner, address _operator) public view returns (bool){\n        return _operatorApprovals[_owner][_operator];\n    }\n\n    function isApprovedOrOwner(address spender, uint tokenId) internal view returns(bool){\n        require(_exists(tokenId), \"ERC721 ERROR: Token does not exist\");\n\n        address owner = ownerOf(tokenId);\n        return (spender == owner || getApproved(tokenId) == spender || isApprovedForAll(owner, spender));\n\n\n    }\n\n}\n",
  "sourcePath": "/Users/maximbelioglo/Desktop/NFT_Marketplace/Source Code/src/contracts/ERC721.sol",
  "compiler": {
    "name": "solc",
    "version": "0.8.17+commit.8df45f5f.Emscripten.clang"
  },
  "schemaVersion": "3.4.11",
  "updatedAt": "2023-01-24T01:35:49.296Z",
  "devdoc": {
    "kind": "dev",
    "methods": {
      "balanceOf(address)": {
        "details": "NFTs assigned to the zero address are considered invalid, and this  function throws for queries about the zero address.",
        "params": {
          "_owner": "An address for whom to query the balance"
        },
        "returns": {
          "_0": "The number of NFTs owned by `_owner`, possibly zero"
        }
      },
      "getApproved(uint256)": {
        "details": "Throws if `_tokenId` is not a valid NFT.",
        "params": {
          "_tokenId": "The NFT to find the approved address for"
        },
        "returns": {
          "_0": "The approved address for this NFT, or the zero address if there is none"
        }
      },
      "isApprovedForAll(address,address)": {
        "params": {
          "_operator": "The address that acts on behalf of the owner",
          "_owner": "The address that owns the NFTs"
        },
        "returns": {
          "_0": "True if `_operator` is an approved operator for `_owner`, false otherwise"
        }
      },
      "ownerOf(uint256)": {
        "details": "NFTs assigned to zero address are considered invalid, and queries  about them do throw.",
        "params": {
          "_tokenId": "The identifier for an NFT"
        },
        "returns": {
          "_0": "The address of the owner of the NFT"
        }
      },
      "setApprovalForAll(address,bool)": {
        "details": "Emits the ApprovalForAll event. The contract MUST allow  multiple operators per owner.",
        "params": {
          "_approved": "True if the operator is approved, false to revoke approval",
          "_operator": "Address to add to the set of authorized operators"
        }
      },
      "transferFrom(address,address,uint256)": {
        "details": "Throws unless `msg.sender` is the current owner, an authorized  operator, or the approved address for this NFT. Throws if `_from` is  not the current owner. Throws if `_to` is the zero address. Throws if  `_tokenId` is not a valid NFT.",
        "params": {
          "_from": "The current owner of the NFT",
          "_to": "The new owner",
          "_tokenId": "The NFT to transfer"
        }
      }
    },
    "version": 1
  },
  "userdoc": {
    "kind": "user",
    "methods": {
      "balanceOf(address)": {
        "notice": "Count all NFTs assigned to an owner"
      },
      "getApproved(uint256)": {
        "notice": "Get the approved address for a single NFT"
      },
      "isApprovedForAll(address,address)": {
        "notice": "Query if an address is an authorized operator for another address"
      },
      "ownerOf(uint256)": {
        "notice": "Find the owner of an NFT"
      },
      "setApprovalForAll(address,bool)": {
        "notice": "Enable or disable approval for a third party (\"operator\") to manage  all of `msg.sender`'s assets"
      },
      "transferFrom(address,address,uint256)": {
        "notice": "Transfer ownership of an NFT -- THE CALLER IS RESPONSIBLE  TO CONFIRM THAT `_to` IS CAPABLE OF RECEIVING NFTS OR ELSE  THEY MAY BE PERMANENTLY LOST"
      }
    },
    "version": 1
  }
}