{
  "contractName": "ERC721Enumerable",
  "abi": [
    {
      "inputs": [],
      "stateMutability": "nonpayable",
      "type": "constructor"
    },
    {
      "anonymous": false,
      "inputs": [
        {
          "indexed": true,
          "internalType": "address",
          "name": "_owner",
          "type": "address"
        },
        {
          "indexed": true,
          "internalType": "address",
          "name": "_approved",
          "type": "address"
        },
        {
          "indexed": true,
          "internalType": "uint256",
          "name": "_tokenId",
          "type": "uint256"
        }
      ],
      "name": "Approval",
      "type": "event"
    },
    {
      "anonymous": false,
      "inputs": [
        {
          "indexed": true,
          "internalType": "address",
          "name": "_owner",
          "type": "address"
        },
        {
          "indexed": true,
          "internalType": "address",
          "name": "_operator",
          "type": "address"
        },
        {
          "indexed": false,
          "internalType": "bool",
          "name": "_approved",
          "type": "bool"
        }
      ],
      "name": "ApprovalForAll",
      "type": "event"
    },
    {
      "anonymous": false,
      "inputs": [
        {
          "indexed": true,
          "internalType": "address",
          "name": "_from",
          "type": "address"
        },
        {
          "indexed": true,
          "internalType": "address",
          "name": "_to",
          "type": "address"
        },
        {
          "indexed": true,
          "internalType": "uint256",
          "name": "_tokenId",
          "type": "uint256"
        }
      ],
      "name": "Transfer",
      "type": "event"
    },
    {
      "inputs": [
        {
          "internalType": "address",
          "name": "_to",
          "type": "address"
        },
        {
          "internalType": "uint256",
          "name": "_tokenId",
          "type": "uint256"
        }
      ],
      "name": "approve",
      "outputs": [],
      "stateMutability": "payable",
      "type": "function"
    },
    {
      "inputs": [
        {
          "internalType": "address",
          "name": "_owner",
          "type": "address"
        }
      ],
      "name": "balanceOf",
      "outputs": [
        {
          "internalType": "uint256",
          "name": "",
          "type": "uint256"
        }
      ],
      "stateMutability": "view",
      "type": "function"
    },
    {
      "inputs": [
        {
          "internalType": "uint256",
          "name": "_tokenId",
          "type": "uint256"
        }
      ],
      "name": "getApproved",
      "outputs": [
        {
          "internalType": "address",
          "name": "",
          "type": "address"
        }
      ],
      "stateMutability": "view",
      "type": "function"
    },
    {
      "inputs": [
        {
          "internalType": "address",
          "name": "_owner",
          "type": "address"
        },
        {
          "internalType": "address",
          "name": "_operator",
          "type": "address"
        }
      ],
      "name": "isApprovedForAll",
      "outputs": [
        {
          "internalType": "bool",
          "name": "",
          "type": "bool"
        }
      ],
      "stateMutability": "view",
      "type": "function"
    },
    {
      "inputs": [
        {
          "internalType": "uint256",
          "name": "_tokenId",
          "type": "uint256"
        }
      ],
      "name": "ownerOf",
      "outputs": [
        {
          "internalType": "address",
          "name": "",
          "type": "address"
        }
      ],
      "stateMutability": "view",
      "type": "function"
    },
    {
      "inputs": [
        {
          "internalType": "address",
          "name": "_operator",
          "type": "address"
        },
        {
          "internalType": "bool",
          "name": "_approved",
          "type": "bool"
        }
      ],
      "name": "setApprovalForAll",
      "outputs": [],
      "stateMutability": "nonpayable",
      "type": "function"
    },
    {
      "inputs": [
        {
          "internalType": "bytes4",
          "name": "interfaceId",
          "type": "bytes4"
        }
      ],
      "name": "supportsInterface",
      "outputs": [
        {
          "internalType": "bool",
          "name": "",
          "type": "bool"
        }
      ],
      "stateMutability": "view",
      "type": "function"
    },
    {
      "inputs": [
        {
          "internalType": "address",
          "name": "_from",
          "type": "address"
        },
        {
          "internalType": "address",
          "name": "_to",
          "type": "address"
        },
        {
          "internalType": "uint256",
          "name": "_tokenId",
          "type": "uint256"
        }
      ],
      "name": "transferFrom",
      "outputs": [],
      "stateMutability": "nonpayable",
      "type": "function"
    },
    {
      "inputs": [],
      "name": "totalSupply",
      "outputs": [
        {
          "internalType": "uint256",
          "name": "",
          "type": "uint256"
        }
      ],
      "stateMutability": "view",
      "type": "function"
    },
    {
      "inputs": [
        {
          "internalType": "uint256",
          "name": "index",
          "type": "uint256"
        }
      ],
      "name": "tokenByIndex",
      "outputs": [
        {
          "internalType": "uint256",
          "name": "",
          "type": "uint256"
        }
      ],
      "stateMutability": "view",
      "type": "function"
    },
    {
      "inputs": [
        {
          "internalType": "address",
          "name": "owner",
          "type": "address"
        },
        {
          "internalType": "uint256",
          "name": "index",
          "type": "uint256"
        }
      ],
      "name": "tokenOfOwnerByIndex",
      "outputs": [
        {
          "internalType": "uint256",
          "name": "",
          "type": "uint256"
        }
      ],
      "stateMutability": "view",
      "type": "function"
    }
  ],
  "bytecode": "0x60806040523480156200001157600080fd5b50620000437f01ffc9a7a5cef8baa21ed3c5c0d7e23accb804b619e9333b597f47a0d84076e2620001bb60201b60201c565b620001407f5af227006b8981efabb10af200ab71f08976cbce54b4c59ae5c97811d19a398c7fe0c9b09697cad3aa3f2bcb7fdd781becaefa478990b24e83d3bfdb65623d77537f90dba0bef8387ab29f95a1abead857c8ccc338f1038f6fa159fa78fd18aff9f77f8c51fd5fcf1f456ec4eb0f32f68d83471264fe082fac12bcbfd2fa4be9eed6c77f22c82707ba960a14c7592ffb6b8cfaa073fed0048a84cc7fa41f6b5bd8e7f2e47f3a6eb71757dfc6e784c1459d26270140c2c147d95ca985c80026fc5301c3eca17f8a7e378434598edc36d108689a030cbc9d7d465de4f74c71bae1028eed6a881b181818181818620001bb60201b60201c565b620001b57f8230223f691b981717299fae9549350a0d894555723531f02108b1f522c1a7977f6da5e1284143cdd2d15038a59bde3be031250f00291d64494c12d967b3a4e0c37fc53637662700e6c65104059db8bba34439e0c32483ab7c34e3ccae52c73954951818620001bb60201b60201c565b62000315565b63ffffffff60e01b817bffffffffffffffffffffffffffffffffffffffffffffffffffffffff19160362000226576040517f08c379a00000000000000000000000000000000000000000000000000000000081526004016200021d90620002f3565b60405180910390fd5b6001600080837bffffffffffffffffffffffffffffffffffffffffffffffffffffffff19167bffffffffffffffffffffffffffffffffffffffffffffffffffffffff1916815260200190815260200160002060006101000a81548160ff02191690831515021790555050565b600082825260208201905092915050565b7f4552433136353a20496e76616c696420496e7465726661636500000000000000600082015250565b6000620002db60198362000292565b9150620002e882620002a3565b602082019050919050565b600060208201905081810360008301526200030e81620002cc565b9050919050565b6118e380620003256000396000f3fe60806040526004361061009c5760003560e01c80632f745c59116100645780632f745c591461018b5780634f6ccce7146101c85780636352211e1461020557806370a0823114610242578063a22cb4651461027f578063e985e9c5146102a85761009c565b806301ffc9a7146100a1578063081812fc146100de578063095ea7b31461011b57806318160ddd1461013757806323b872dd14610162575b600080fd5b3480156100ad57600080fd5b506100c860048036038101906100c39190610ed8565b6102e5565b6040516100d59190610f20565b60405180910390f35b3480156100ea57600080fd5b5061010560048036038101906101009190610f71565b61034c565b6040516101129190610fdf565b60405180910390f35b61013560048036038101906101309190611026565b6103d1565b005b34801561014357600080fd5b5061014c61057d565b6040516101599190611075565b60405180910390f35b34801561016e57600080fd5b5061018960048036038101906101849190611090565b61058a565b005b34801561019757600080fd5b506101b260048036038101906101ad9190611026565b6105e3565b6040516101bf9190611075565b60405180910390f35b3480156101d457600080fd5b506101ef60048036038101906101ea9190610f71565b610693565b6040516101fc9190611075565b60405180910390f35b34801561021157600080fd5b5061022c60048036038101906102279190610f71565b610704565b6040516102399190610fdf565b60405180910390f35b34801561024e57600080fd5b50610269600480360381019061026491906110e3565b6107b5565b6040516102769190611075565b60405180910390f35b34801561028b57600080fd5b506102a660048036038101906102a1919061113c565b610873565b005b3480156102b457600080fd5b506102cf60048036038101906102ca919061117c565b6109de565b6040516102dc9190610f20565b60405180910390f35b6000806000837bffffffffffffffffffffffffffffffffffffffffffffffffffffffff19167bffffffffffffffffffffffffffffffffffffffffffffffffffffffff1916815260200190815260200160002060009054906101000a900460ff169050919050565b600061035782610a72565b610396576040517f08c379a000000000000000000000000000000000000000000000000000000000815260040161038d9061123f565b60405180910390fd5b6003600083815260200190815260200160002060009054906101000a900473ffffffffffffffffffffffffffffffffffffffff169050919050565b60006103dc82610704565b90508073ffffffffffffffffffffffffffffffffffffffff163373ffffffffffffffffffffffffffffffffffffffff16148061041e575061041d81336109de565b5b61045d576040517f08c379a0000000000000000000000000000000000000000000000000000000008152600401610454906112d1565b60405180910390fd5b8073ffffffffffffffffffffffffffffffffffffffff168373ffffffffffffffffffffffffffffffffffffffff16036104cb576040517f08c379a00000000000000000000000000000000000000000000000000000000081526004016104c290611363565b60405180910390fd5b826003600084815260200190815260200160002060006101000a81548173ffffffffffffffffffffffffffffffffffffffff021916908373ffffffffffffffffffffffffffffffffffffffff160217905550818373ffffffffffffffffffffffffffffffffffffffff168273ffffffffffffffffffffffffffffffffffffffff167f8c5be1e5ebec7d5bd14f71427d1e84f3dd0314c0f7b2291e5b200ac8c7c3b92560405160405180910390a4505050565b6000600580549050905090565b6105943382610ae4565b6105d3576040517f08c379a00000000000000000000000000000000000000000000000000000000081526004016105ca906113cf565b60405180910390fd5b6105de838383610bc2565b505050565b60006105ee836107b5565b821061062f576040517f08c379a00000000000000000000000000000000000000000000000000000000081526004016106269061143b565b60405180910390fd5b600760008473ffffffffffffffffffffffffffffffffffffffff1673ffffffffffffffffffffffffffffffffffffffff16815260200190815260200160002082815481106106805761067f61145b565b5b9060005260206000200154905092915050565b600061069d61057d565b82106106de576040517f08c379a00000000000000000000000000000000000000000000000000000000081526004016106d5906114d6565b60405180910390fd5b600582815481106106f2576106f161145b565b5b90600052602060002001549050919050565b6000806001600084815260200190815260200160002060009054906101000a900473ffffffffffffffffffffffffffffffffffffffff169050600073ffffffffffffffffffffffffffffffffffffffff168173ffffffffffffffffffffffffffffffffffffffff16036107ac576040517f08c379a00000000000000000000000000000000000000000000000000000000081526004016107a390611568565b60405180910390fd5b80915050919050565b60008073ffffffffffffffffffffffffffffffffffffffff168273ffffffffffffffffffffffffffffffffffffffff1603610825576040517f08c379a000000000000000000000000000000000000000000000000000000000815260040161081c90611568565b60405180910390fd5b61086c600260008473ffffffffffffffffffffffffffffffffffffffff1673ffffffffffffffffffffffffffffffffffffffff168152602001908152602001600020610dcc565b9050919050565b3373ffffffffffffffffffffffffffffffffffffffff168273ffffffffffffffffffffffffffffffffffffffff16036108e1576040517f08c379a00000000000000000000000000000000000000000000000000000000081526004016108d8906115d4565b60405180910390fd5b80600460003373ffffffffffffffffffffffffffffffffffffffff1673ffffffffffffffffffffffffffffffffffffffff16815260200190815260200160002060008473ffffffffffffffffffffffffffffffffffffffff1673ffffffffffffffffffffffffffffffffffffffff16815260200190815260200160002060006101000a81548160ff0219169083151502179055508173ffffffffffffffffffffffffffffffffffffffff163373ffffffffffffffffffffffffffffffffffffffff167f17307eab39ab6107e8899845ad3d59bd9653f200f220920489ca2b5937696c31836040516109d29190610f20565b60405180910390a35050565b6000600460008473ffffffffffffffffffffffffffffffffffffffff1673ffffffffffffffffffffffffffffffffffffffff16815260200190815260200160002060008373ffffffffffffffffffffffffffffffffffffffff1673ffffffffffffffffffffffffffffffffffffffff16815260200190815260200160002060009054906101000a900460ff16905092915050565b6000806001600084815260200190815260200160002060009054906101000a900473ffffffffffffffffffffffffffffffffffffffff169050600073ffffffffffffffffffffffffffffffffffffffff168173ffffffffffffffffffffffffffffffffffffffff161415915050919050565b6000610aef82610a72565b610b2e576040517f08c379a0000000000000000000000000000000000000000000000000000000008152600401610b2590611666565b60405180910390fd5b6000610b3983610704565b90508073ffffffffffffffffffffffffffffffffffffffff168473ffffffffffffffffffffffffffffffffffffffff161480610ba857508373ffffffffffffffffffffffffffffffffffffffff16610b908461034c565b73ffffffffffffffffffffffffffffffffffffffff16145b80610bb95750610bb881856109de565b5b91505092915050565b600073ffffffffffffffffffffffffffffffffffffffff168273ffffffffffffffffffffffffffffffffffffffff1603610c31576040517f08c379a0000000000000000000000000000000000000000000000000000000008152600401610c28906116f8565b60405180910390fd5b8273ffffffffffffffffffffffffffffffffffffffff16610c5182610704565b73ffffffffffffffffffffffffffffffffffffffff1614610ca7576040517f08c379a0000000000000000000000000000000000000000000000000000000008152600401610c9e9061178a565b60405180910390fd5b8173ffffffffffffffffffffffffffffffffffffffff166001600083815260200190815260200160002060009054906101000a90505050610d25600260008573ffffffffffffffffffffffffffffffffffffffff1673ffffffffffffffffffffffffffffffffffffffff168152602001908152602001600020610dda565b610d6c600260008473ffffffffffffffffffffffffffffffffffffffff1673ffffffffffffffffffffffffffffffffffffffff168152602001908152602001600020610dfd565b808273ffffffffffffffffffffffffffffffffffffffff168473ffffffffffffffffffffffffffffffffffffffff167fddf252ad1be2c89b69c2b068fc378daa952ba7f163c4a11628f55a4df523b3ef60405160405180910390a4505050565b600081600001549050919050565b610df260018260000154610e1c90919063ffffffff16565b816000018190555050565b6001816000016000828254610e1291906117d9565b9250508190555050565b600082821115610e61576040517f08c379a0000000000000000000000000000000000000000000000000000000008152600401610e5890611859565b60405180910390fd5b60008284610e6f9190611879565b90508091505092915050565b600080fd5b60007fffffffff0000000000000000000000000000000000000000000000000000000082169050919050565b610eb581610e80565b8114610ec057600080fd5b50565b600081359050610ed281610eac565b92915050565b600060208284031215610eee57610eed610e7b565b5b6000610efc84828501610ec3565b91505092915050565b60008115159050919050565b610f1a81610f05565b82525050565b6000602082019050610f356000830184610f11565b92915050565b6000819050919050565b610f4e81610f3b565b8114610f5957600080fd5b50565b600081359050610f6b81610f45565b92915050565b600060208284031215610f8757610f86610e7b565b5b6000610f9584828501610f5c565b91505092915050565b600073ffffffffffffffffffffffffffffffffffffffff82169050919050565b6000610fc982610f9e565b9050919050565b610fd981610fbe565b82525050565b6000602082019050610ff46000830184610fd0565b92915050565b61100381610fbe565b811461100e57600080fd5b50565b60008135905061102081610ffa565b92915050565b6000806040838503121561103d5761103c610e7b565b5b600061104b85828601611011565b925050602061105c85828601610f5c565b9150509250929050565b61106f81610f3b565b82525050565b600060208201905061108a6000830184611066565b92915050565b6000806000606084860312156110a9576110a8610e7b565b5b60006110b786828701611011565b93505060206110c886828701611011565b92505060406110d986828701610f5c565b9150509250925092565b6000602082840312156110f9576110f8610e7b565b5b600061110784828501611011565b91505092915050565b61111981610f05565b811461112457600080fd5b50565b60008135905061113681611110565b92915050565b6000806040838503121561115357611152610e7b565b5b600061116185828601611011565b925050602061117285828601611127565b9150509250929050565b6000806040838503121561119357611192610e7b565b5b60006111a185828601611011565b92505060206111b285828601611011565b9150509250929050565b600082825260208201905092915050565b7f4552433732313a20617070726f76656420717565727920666f72206e6f6e657860008201527f697374656e7420746f6b656e0000000000000000000000000000000000000000602082015250565b6000611229602c836111bc565b9150611234826111cd565b604082019050919050565b600060208201905081810360008301526112588161121c565b9050919050565b7f455243373231204552524f523a2046756e6374696f6e2063616c6c657220697360008201527f206e6f7420746865206f776e6572000000000000000000000000000000000000602082015250565b60006112bb602e836111bc565b91506112c68261125f565b604082019050919050565b600060208201905081810360008301526112ea816112ae565b9050919050565b7f455243373231204552524f523a20417070726f76657220616e64205f746f206160008201527f7265207468652073616d65000000000000000000000000000000000000000000602082015250565b600061134d602b836111bc565b9150611358826112f1565b604082019050919050565b6000602082019050818103600083015261137c81611340565b9050919050565b7f455243373231204552524f523a204e6f7420417070726f766564000000000000600082015250565b60006113b9601a836111bc565b91506113c482611383565b602082019050919050565b600060208201905081810360008301526113e8816113ac565b9050919050565b7f4f776e657220696e646578206973206f7574206f6620626f756e647300000000600082015250565b6000611425601c836111bc565b9150611430826113ef565b602082019050919050565b6000602082019050818103600083015261145481611418565b9050919050565b7f4e487b7100000000000000000000000000000000000000000000000000000000600052603260045260246000fd5b7f476c6f62616c20696e646578206973206f7574206f6620626f756e6473000000600082015250565b60006114c0601d836111bc565b91506114cb8261148a565b602082019050919050565b600060208201905081810360008301526114ef816114b3565b9050919050565b7f4572726f723a204f776e657220717565727920666f72206e6f6e2d657869737460008201527f656e7420746f6b656e0000000000000000000000000000000000000000000000602082015250565b60006115526029836111bc565b915061155d826114f6565b604082019050919050565b6000602082019050818103600083015261158181611545565b9050919050565b7f4552433732313a20617070726f766520746f2063616c6c657200000000000000600082015250565b60006115be6019836111bc565b91506115c982611588565b602082019050919050565b600060208201905081810360008301526115ed816115b1565b9050919050565b7f455243373231204552524f523a20546f6b656e20646f6573206e6f742065786960008201527f7374000000000000000000000000000000000000000000000000000000000000602082015250565b60006116506022836111bc565b915061165b826115f4565b604082019050919050565b6000602082019050818103600083015261167f81611643565b9050919050565b7f455243373231204552524f523a205472616e7366657220746f207a65726f206160008201527f6464726573730000000000000000000000000000000000000000000000000000602082015250565b60006116e26026836111bc565b91506116ed82611686565b604082019050919050565b60006020820190508181036000830152611711816116d5565b9050919050565b7f455243373231204552524f523a20546869732061646472657373206973206e6f60008201527f7420746865206f776e6572000000000000000000000000000000000000000000602082015250565b6000611774602b836111bc565b915061177f82611718565b604082019050919050565b600060208201905081810360008301526117a381611767565b9050919050565b7f4e487b7100000000000000000000000000000000000000000000000000000000600052601160045260246000fd5b60006117e482610f3b565b91506117ef83610f3b565b9250828201905080821115611807576118066117aa565b5b92915050565b7f536166654d6174683a205375627472616374696f6e204f766572666c6f770000600082015250565b6000611843601e836111bc565b915061184e8261180d565b602082019050919050565b6000602082019050818103600083015261187281611836565b9050919050565b600061188482610f3b565b915061188f83610f3b565b92508282039050818111156118a7576118a66117aa565b5b9291505056fea2646970667358221220837ad6f946bd9c0c99679943939773fee0b54e3727b0264890c3416d63e6db1964736f6c63430008110033",
  "immutableReferences": {},
  "source": "// SPDX-License-Identifier: MIT\npragma solidity ^0.8.0;\n\n//importing to gain access to the _min() function \nimport \"./ERC721.sol\";\nimport \"./interfaces/IERC721Enumerable.sol\";\n\ncontract ERC721Enumerable is IERC721Enumerable, ERC721 {\n\n    uint[] private _allTokens;\n\n    //mapping of tokenId to position in _allTokens array \n    mapping(uint => uint) private _allTokensIndex; \n    //mapping of owner to list of all owner token Ids\n    mapping(address => uint[]) private _ownedTokens; \n    //mapping of token ID index to the owner tokens list \n    mapping(uint => uint) private _ownedTokensIndex; \n\n    //so that the interface is registered at runtime  \n    constructor () {\n        _registerInterface(bytes4(\n            keccak256(\"totalSupply(bytes4)\")\n            ^keccak256(\"tokenByIndex(bytes4)\")\n            ^keccak256(\"tokenOfOwnerByIndex(bytes4)\")));\n    }\n\n    // @notice Count NFTs tracked by this contract\n    // @return A count of valid NFTs tracked by this contract, where each one of\n    // them has an assigned and queryable owner not equal to the zero address\n    function totalSupply() public override view returns (uint256){ //flip back to external\n        return _allTokens.length; \n    }\n\n    //Adding tokens to the total supply count & keeping track of index & its position in all tokens\n    //gets called in _mint()\n    function _addTokensToAllTokenEnumeration(uint tokenId) private {\n\n        //set index of then token to its position in the _allTokens array \n        //because tokens get pushed to array, so its always last position\n        _allTokensIndex[tokenId] = _allTokens.length;\n        _allTokens.push(tokenId);\n    }\n\n    //Adding (assigning) tokens to the owner when they are minted\n    //gets called in _mint()\n    function _addTokensToOwnerEnumeration(address to, uint tokenId) private {\n        _ownedTokensIndex[tokenId] = _ownedTokens[to].length;\n        _ownedTokens[to].push(tokenId);\n\n    }\n\n    // @notice Enumerate valid NFTs\n    // @dev Throws if `_index` >= `totalSupply()`.\n    // @param _index A counter less than `totalSupply()`\n    // @return The token identifier for the `_index`th NFT,\n    ///  (sort order not specified)\n    function tokenByIndex(uint index) public override view returns(uint){\n        //ensure index is not out of bounds of total supply \n        require(index < totalSupply(), \"Global index is out of bounds\");\n        return _allTokens[index];\n    }\n\n    // @notice Enumerate NFTs assigned to an owner\n    // @dev Throws if `_index` >= `balanceOf(_owner)` or if\n    ///  `_owner` is the zero address, representing invalid NFTs.\n    // @param _owner An address where we are interested in NFTs owned by them\n    // @param _index A counter less than `balanceOf(_owner)`\n    // @return The token identifier for the `_index`th NFT assigned to `_owner`,\n    ///   (sort order not specified)\n    function tokenOfOwnerByIndex(address owner, uint index) public override view returns(uint){\n        //ensure index is not out of bounds of owner's tokens\n        require(index < balanceOf(owner), \"Owner index is out of bounds\");\n        return _ownedTokens[owner][index];\n    }\n\n\n    //overriding the virtual function in ERC721 \n    function _mint (address to, uint tokenId) internal override(ERC721) {\n        super._mint(to, tokenId);\n\n        //1. Add tokens to the owner \n        //2. Add tokens to total supply - _allTokens\n        _addTokensToAllTokenEnumeration(tokenId); \n        _addTokensToOwnerEnumeration(to, tokenId);\n    }\n\n\n}\n",
  "sourcePath": "/Users/maximbelioglo/Desktop/NFT_Marketplace/Source Code/src/contracts/ERC721Enumerable.sol",
  "compiler": {
    "name": "solc",
    "version": "0.8.17+commit.8df45f5f.Emscripten.clang"
  },
  "schemaVersion": "3.4.11",
  "updatedAt": "2023-01-24T01:35:49.322Z",
  "devdoc": {
    "kind": "dev",
    "methods": {
      "balanceOf(address)": {
        "details": "NFTs assigned to the zero address are considered invalid, and this  function throws for queries about the zero address.",
        "params": {
          "_owner": "An address for whom to query the balance"
        },
        "returns": {
          "_0": "The number of NFTs owned by `_owner`, possibly zero"
        }
      },
      "getApproved(uint256)": {
        "details": "Throws if `_tokenId` is not a valid NFT.",
        "params": {
          "_tokenId": "The NFT to find the approved address for"
        },
        "returns": {
          "_0": "The approved address for this NFT, or the zero address if there is none"
        }
      },
      "isApprovedForAll(address,address)": {
        "params": {
          "_operator": "The address that acts on behalf of the owner",
          "_owner": "The address that owns the NFTs"
        },
        "returns": {
          "_0": "True if `_operator` is an approved operator for `_owner`, false otherwise"
        }
      },
      "ownerOf(uint256)": {
        "details": "NFTs assigned to zero address are considered invalid, and queries  about them do throw.",
        "params": {
          "_tokenId": "The identifier for an NFT"
        },
        "returns": {
          "_0": "The address of the owner of the NFT"
        }
      },
      "setApprovalForAll(address,bool)": {
        "details": "Emits the ApprovalForAll event. The contract MUST allow  multiple operators per owner.",
        "params": {
          "_approved": "True if the operator is approved, false to revoke approval",
          "_operator": "Address to add to the set of authorized operators"
        }
      },
      "totalSupply()": {
        "returns": {
          "_0": "A count of valid NFTs tracked by this contract, where each one of  them has an assigned and queryable owner not equal to the zero address"
        }
      },
      "transferFrom(address,address,uint256)": {
        "details": "Throws unless `msg.sender` is the current owner, an authorized  operator, or the approved address for this NFT. Throws if `_from` is  not the current owner. Throws if `_to` is the zero address. Throws if  `_tokenId` is not a valid NFT.",
        "params": {
          "_from": "The current owner of the NFT",
          "_to": "The new owner",
          "_tokenId": "The NFT to transfer"
        }
      }
    },
    "version": 1
  },
  "userdoc": {
    "kind": "user",
    "methods": {
      "balanceOf(address)": {
        "notice": "Count all NFTs assigned to an owner"
      },
      "getApproved(uint256)": {
        "notice": "Get the approved address for a single NFT"
      },
      "isApprovedForAll(address,address)": {
        "notice": "Query if an address is an authorized operator for another address"
      },
      "ownerOf(uint256)": {
        "notice": "Find the owner of an NFT"
      },
      "setApprovalForAll(address,bool)": {
        "notice": "Enable or disable approval for a third party (\"operator\") to manage  all of `msg.sender`'s assets"
      },
      "tokenByIndex(uint256)": {
        "notice": "(sort order not specified)"
      },
      "tokenOfOwnerByIndex(address,uint256)": {
        "notice": "(sort order not specified)"
      },
      "totalSupply()": {
        "notice": "Count NFTs tracked by this contract"
      },
      "transferFrom(address,address,uint256)": {
        "notice": "Transfer ownership of an NFT -- THE CALLER IS RESPONSIBLE  TO CONFIRM THAT `_to` IS CAPABLE OF RECEIVING NFTS OR ELSE  THEY MAY BE PERMANENTLY LOST"
      }
    },
    "version": 1
  }
}